{
  "address": "0x901b6B0e2f0be056fAaE86CD822b67fA8863A354",
  "abi": [
    {
      "anonymous": false,
      "inputs": [
        {
          "indexed": true,
          "internalType": "address",
          "name": "owner",
          "type": "address"
        },
        {
          "indexed": true,
          "internalType": "address",
          "name": "approved",
          "type": "address"
        },
        {
          "indexed": true,
          "internalType": "uint256",
          "name": "tokenId",
          "type": "uint256"
        }
      ],
      "name": "Approval",
      "type": "event"
    },
    {
      "anonymous": false,
      "inputs": [
        {
          "indexed": true,
          "internalType": "address",
          "name": "owner",
          "type": "address"
        },
        {
          "indexed": true,
          "internalType": "address",
          "name": "operator",
          "type": "address"
        },
        {
          "indexed": false,
          "internalType": "bool",
          "name": "approved",
          "type": "bool"
        }
      ],
      "name": "ApprovalForAll",
      "type": "event"
    },
    {
      "anonymous": false,
      "inputs": [
        {
          "indexed": true,
          "internalType": "address",
          "name": "previousOwner",
          "type": "address"
        },
        {
          "indexed": true,
          "internalType": "address",
          "name": "newOwner",
          "type": "address"
        }
      ],
      "name": "OwnershipTransferred",
      "type": "event"
    },
    {
      "anonymous": false,
      "inputs": [
        {
          "indexed": true,
          "internalType": "address",
          "name": "from",
          "type": "address"
        },
        {
          "indexed": true,
          "internalType": "address",
          "name": "to",
          "type": "address"
        },
        {
          "indexed": true,
          "internalType": "uint256",
          "name": "tokenId",
          "type": "uint256"
        }
      ],
      "name": "Transfer",
      "type": "event"
    },
    {
      "inputs": [
        {
          "internalType": "address",
          "name": "to",
          "type": "address"
        },
        {
          "internalType": "uint256",
          "name": "tokenId",
          "type": "uint256"
        }
      ],
      "name": "approve",
      "outputs": [],
      "stateMutability": "nonpayable",
      "type": "function"
    },
    {
      "inputs": [
        {
          "internalType": "address",
          "name": "owner",
          "type": "address"
        }
      ],
      "name": "balanceOf",
      "outputs": [
        {
          "internalType": "uint256",
          "name": "",
          "type": "uint256"
        }
      ],
      "stateMutability": "view",
      "type": "function"
    },
    {
      "inputs": [
        {
          "internalType": "address",
          "name": "target",
          "type": "address"
        },
        {
          "internalType": "uint256",
          "name": "tokenId",
          "type": "uint256"
        }
      ],
      "name": "claim",
      "outputs": [],
      "stateMutability": "nonpayable",
      "type": "function"
    },
    {
      "inputs": [
        {
          "internalType": "uint256",
          "name": "tokenId",
          "type": "uint256"
        }
      ],
      "name": "getApproved",
      "outputs": [
        {
          "internalType": "address",
          "name": "",
          "type": "address"
        }
      ],
      "stateMutability": "view",
      "type": "function"
    },
    {
      "inputs": [
        {
          "internalType": "uint256",
          "name": "tokenId",
          "type": "uint256"
        }
      ],
      "name": "getEight",
      "outputs": [
        {
          "internalType": "uint256",
          "name": "",
          "type": "uint256"
        }
      ],
      "stateMutability": "view",
      "type": "function"
    },
    {
      "inputs": [
        {
          "internalType": "uint256",
          "name": "tokenId",
          "type": "uint256"
        }
      ],
      "name": "getFifth",
      "outputs": [
        {
          "internalType": "uint256",
          "name": "",
          "type": "uint256"
        }
      ],
      "stateMutability": "view",
      "type": "function"
    },
    {
      "inputs": [
        {
          "internalType": "uint256",
          "name": "tokenId",
          "type": "uint256"
        }
      ],
      "name": "getFirst",
      "outputs": [
        {
          "internalType": "uint256",
          "name": "",
          "type": "uint256"
        }
      ],
      "stateMutability": "view",
      "type": "function"
    },
    {
      "inputs": [
        {
          "internalType": "uint256",
          "name": "tokenId",
          "type": "uint256"
        }
      ],
      "name": "getFourth",
      "outputs": [
        {
          "internalType": "uint256",
          "name": "",
          "type": "uint256"
        }
      ],
      "stateMutability": "view",
      "type": "function"
    },
    {
      "inputs": [
        {
          "internalType": "uint256",
          "name": "tokenId",
          "type": "uint256"
        }
      ],
      "name": "getSecond",
      "outputs": [
        {
          "internalType": "uint256",
          "name": "",
          "type": "uint256"
        }
      ],
      "stateMutability": "view",
      "type": "function"
    },
    {
      "inputs": [
        {
          "internalType": "uint256",
          "name": "tokenId",
          "type": "uint256"
        }
      ],
      "name": "getSeventh",
      "outputs": [
        {
          "internalType": "uint256",
          "name": "",
          "type": "uint256"
        }
      ],
      "stateMutability": "view",
      "type": "function"
    },
    {
      "inputs": [
        {
          "internalType": "uint256",
          "name": "tokenId",
          "type": "uint256"
        }
      ],
      "name": "getSixth",
      "outputs": [
        {
          "internalType": "uint256",
          "name": "",
          "type": "uint256"
        }
      ],
      "stateMutability": "view",
      "type": "function"
    },
    {
      "inputs": [
        {
          "internalType": "uint256",
          "name": "tokenId",
          "type": "uint256"
        }
      ],
      "name": "getThird",
      "outputs": [
        {
          "internalType": "uint256",
          "name": "",
          "type": "uint256"
        }
      ],
      "stateMutability": "view",
      "type": "function"
    },
    {
      "inputs": [],
      "name": "initialize",
      "outputs": [],
      "stateMutability": "nonpayable",
      "type": "function"
    },
    {
      "inputs": [
        {
          "internalType": "address",
          "name": "owner",
          "type": "address"
        },
        {
          "internalType": "address",
          "name": "operator",
          "type": "address"
        }
      ],
      "name": "isApprovedForAll",
      "outputs": [
        {
          "internalType": "bool",
          "name": "",
          "type": "bool"
        }
      ],
      "stateMutability": "view",
      "type": "function"
    },
    {
      "inputs": [],
      "name": "name",
      "outputs": [
        {
          "internalType": "string",
          "name": "",
          "type": "string"
        }
      ],
      "stateMutability": "view",
      "type": "function"
    },
    {
      "inputs": [],
      "name": "owner",
      "outputs": [
        {
          "internalType": "address",
          "name": "",
          "type": "address"
        }
      ],
      "stateMutability": "view",
      "type": "function"
    },
    {
      "inputs": [
        {
          "internalType": "uint256",
          "name": "tokenId",
          "type": "uint256"
        }
      ],
      "name": "ownerOf",
      "outputs": [
        {
          "internalType": "address",
          "name": "",
          "type": "address"
        }
      ],
      "stateMutability": "view",
      "type": "function"
    },
    {
      "inputs": [],
      "name": "renounceOwnership",
      "outputs": [],
      "stateMutability": "nonpayable",
      "type": "function"
    },
    {
      "inputs": [
        {
          "internalType": "address",
          "name": "from",
          "type": "address"
        },
        {
          "internalType": "address",
          "name": "to",
          "type": "address"
        },
        {
          "internalType": "uint256",
          "name": "tokenId",
          "type": "uint256"
        }
      ],
      "name": "safeTransferFrom",
      "outputs": [],
      "stateMutability": "nonpayable",
      "type": "function"
    },
    {
      "inputs": [
        {
          "internalType": "address",
          "name": "from",
          "type": "address"
        },
        {
          "internalType": "address",
          "name": "to",
          "type": "address"
        },
        {
          "internalType": "uint256",
          "name": "tokenId",
          "type": "uint256"
        },
        {
          "internalType": "bytes",
          "name": "_data",
          "type": "bytes"
        }
      ],
      "name": "safeTransferFrom",
      "outputs": [],
      "stateMutability": "nonpayable",
      "type": "function"
    },
    {
      "inputs": [
        {
          "internalType": "address",
          "name": "operator",
          "type": "address"
        },
        {
          "internalType": "bool",
          "name": "approved",
          "type": "bool"
        }
      ],
      "name": "setApprovalForAll",
      "outputs": [],
      "stateMutability": "nonpayable",
      "type": "function"
    },
    {
      "inputs": [
        {
          "internalType": "bytes4",
          "name": "interfaceId",
          "type": "bytes4"
        }
      ],
      "name": "supportsInterface",
      "outputs": [
        {
          "internalType": "bool",
          "name": "",
          "type": "bool"
        }
      ],
      "stateMutability": "view",
      "type": "function"
    },
    {
      "inputs": [],
      "name": "symbol",
      "outputs": [
        {
          "internalType": "string",
          "name": "",
          "type": "string"
        }
      ],
      "stateMutability": "view",
      "type": "function"
    },
    {
      "inputs": [
        {
          "internalType": "uint256",
          "name": "index",
          "type": "uint256"
        }
      ],
      "name": "tokenByIndex",
      "outputs": [
        {
          "internalType": "uint256",
          "name": "",
          "type": "uint256"
        }
      ],
      "stateMutability": "view",
      "type": "function"
    },
    {
      "inputs": [
        {
          "internalType": "address",
          "name": "owner",
          "type": "address"
        },
        {
          "internalType": "uint256",
          "name": "index",
          "type": "uint256"
        }
      ],
      "name": "tokenOfOwnerByIndex",
      "outputs": [
        {
          "internalType": "uint256",
          "name": "",
          "type": "uint256"
        }
      ],
      "stateMutability": "view",
      "type": "function"
    },
    {
      "inputs": [
        {
          "internalType": "uint256",
          "name": "tokenId",
          "type": "uint256"
        }
      ],
      "name": "tokenURI",
      "outputs": [
        {
          "internalType": "string",
          "name": "",
          "type": "string"
        }
      ],
      "stateMutability": "view",
      "type": "function"
    },
    {
      "inputs": [],
      "name": "totalSupply",
      "outputs": [
        {
          "internalType": "uint256",
          "name": "",
          "type": "uint256"
        }
      ],
      "stateMutability": "view",
      "type": "function"
    },
    {
      "inputs": [
        {
          "internalType": "address",
          "name": "from",
          "type": "address"
        },
        {
          "internalType": "address",
          "name": "to",
          "type": "address"
        },
        {
          "internalType": "uint256",
          "name": "tokenId",
          "type": "uint256"
        }
      ],
      "name": "transferFrom",
      "outputs": [],
      "stateMutability": "nonpayable",
      "type": "function"
    },
    {
      "inputs": [
        {
          "internalType": "address",
          "name": "newOwner",
          "type": "address"
        }
      ],
      "name": "transferOwnership",
      "outputs": [],
      "stateMutability": "nonpayable",
      "type": "function"
    }
  ],
  "transactionHash": "0x52b30ec8ead3de7395bef7607e6955e01847f6630fd6fcfa5651f8816128cad8",
  "args": [],
  "solcInputHash": "c0435f75140056f8072a3e84f1224506",
  "bytecode": "0x61052060405260016080818152600260a0819052600360c0819052600460e0819052600561010081905260066101208190526007610140819052600861016081905260096101808190526101a08a90526101c08890526101e08790526102008690526102208590526102408490526102608390526102808290526102a08190526102c08a90526102e08890526103008790526103208690526103408590526103608490526103808390526103a08290526103c08190526103e09990995261040096909652610420949094526104409290925261046052610480526104a0526104c0526104e091909152600a61050052620000fe9060fc90602562000410565b5060408051610b0081018252600180825260208201819052918101829052606081018290526080810182905260a0810182905260c0810182905260e08101829052610100810182905261012081018290526101408101829052610160810182905261018081018290526101a081018290526101c081018290526101e08101829052610200810182905261022081018290526102408101829052610260810182905261028081018290526102a081018290526102c081018290526102e08101829052610300810182905261032081018290526103408101829052610360810182905261038081018290526103a081018290526103c081018290526103e08101829052610400810182905261042081018290526104408101829052610460810182905261048081018290526104a081018290526104c081018290526104e08101829052610500810182905261052081018290526105408101829052610560810182905261058081018290526105a081018290526105c081018290526105e08101829052610600810182905261062081018290526106408101829052610660810182905261068081018290526106a081018290526106c081018290526106e08101829052610700810182905261072081018290526107408101829052610760810182905261078081018290526107a081018290526107c081018290526107e08101829052610800810182905261082081018290526108408101829052610860810182905261088081018290526108a081018290526108c081018290526108e08101829052610900810182905261092081018290526109408101829052610960810182905261098081018290526109a081018290526109c081018290526109e08101829052610a008101829052610a208101829052610a408101829052610a608101829052610a808101829052610aa08101829052610ac08101919091526000610ae0820152620003d09060fd90605862000410565b506040805180820190915260018152600260208201819052620003f69160fe9162000410565b503480156200040457600080fd5b50600160c955620004d4565b82805482825590600052602060002090601f01602090048101928215620004ab5791602002820160005b838211156200047a57835183826101000a81548160ff021916908360ff16021790555092602001926001016020816000010492830192600103026200043a565b8015620004a95782816101000a81549060ff02191690556001016020816000010492830192600103026200047a565b505b50620004b9929150620004bd565b5090565b5b80821115620004b95760008155600101620004be565b612da380620004e46000396000f3fe608060405234801561001057600080fd5b50600436106101cf5760003560e01c8063715018a6116101045780639ec29b82116100a2578063c87b56dd11610071578063c87b56dd146103ac578063e985e9c5146103bf578063f2fde38b146103d2578063fa7f71b1146103e5576101cf565b80639ec29b8214610360578063a22cb46514610373578063aad3ec9614610386578063b88d4fde14610399576101cf565b80638c921d06116100de5780638c921d061461032a5780638da5cb5b1461033d5780639347e43f1461034557806395d89b4114610358576101cf565b8063715018a6146103075780638129fc1c1461030f5780638aa001fc14610317576101cf565b80632f745c59116101715780634f6ccce71161014b5780634f6ccce7146102bb5780636352211e146102ce578063667386f7146102e157806370a08231146102f4576101cf565b80632f745c591461028257806342842e0e1461029557806342d9d876146102a8576101cf565b8063095ea7b3116101ad578063095ea7b3146102325780630b2503a61461024757806318160ddd1461026757806323b872dd1461026f576101cf565b806301ffc9a7146101d457806306fdde03146101fd578063081812fc14610212575b600080fd5b6101e76101e2366004612167565b6103f8565b6040516101f49190612440565b60405180910390f35b610205610425565b6040516101f4919061244b565b61022561022036600461219f565b6104b7565b6040516101f491906123ef565b61024561024036600461213e565b610503565b005b61025a61025536600461219f565b61059b565b6040516101f491906129bb565b61025a610633565b61024561027d366004611ffd565b610639565b61025a61029036600461213e565b610671565b6102456102a3366004611ffd565b6106c3565b61025a6102b636600461219f565b6106de565b61025a6102c936600461219f565b61075a565b6102256102dc36600461219f565b6107b5565b61025a6102ef36600461219f565b6107ea565b61025a610302366004611faa565b610866565b6102456108aa565b6102456108f5565b61025a61032536600461219f565b61097a565b61025a61033836600461219f565b6109f7565b610225610a74565b61025a61035336600461219f565b610a83565b610205610aff565b61025a61036e36600461219f565b610b0e565b610245610381366004612104565b610b8b565b61024561039436600461213e565b610c59565b6102456103a7366004612038565b610cc0565b6102056103ba36600461219f565b610cff565b6101e76103cd366004611fcb565b610fc4565b6102456103e0366004611faa565b610ff2565b61025a6103f336600461219f565b611060565b60006001600160e01b0319821663780e9d6360e01b148061041d575061041d826110dc565b90505b919050565b60606065805461043490612a52565b80601f016020809104026020016040519081016040528092919081815260200182805461046090612a52565b80156104ad5780601f10610482576101008083540402835291602001916104ad565b820191906000526020600020905b81548152906001019060200180831161049057829003601f168201915b5050505050905090565b60006104c28261111c565b6104e75760405162461bcd60e51b81526004016104de906127b2565b60405180910390fd5b506000908152606960205260409020546001600160a01b031690565b600061050e826107b5565b9050806001600160a01b0316836001600160a01b031614156105425760405162461bcd60e51b81526004016104de906128a6565b806001600160a01b0316610554611139565b6001600160a01b031614806105705750610570816103cd611139565b61058c5760405162461bcd60e51b81526004016104de9061263f565b610596838361113d565b505050565b600061041d826040518060400160405280600581526020016408c928ca8960db1b81525060fc80548060200260200160405190810160405280929190818152602001828054801561062957602002820191906000526020600020906000905b825461010083900a900460ff168152602060019283018181049485019490930390920291018084116105fa5790505b50505050506111ab565b60995490565b61064a610644611139565b826113b8565b6106665760405162461bcd60e51b81526004016104de906128e7565b61059683838361143d565b600061067c83610866565b821061069a5760405162461bcd60e51b81526004016104de9061245e565b506001600160a01b03919091166000908152609760209081526040808320938352929052205490565b61059683838360405180602001604052806000815250610cc0565b600061041d82604051806040016040528060058152602001640a692b0a8960db1b81525060fc805480602002602001604051908101604052809291908181526020018280548015610629576000918252602091829020805460ff1684529082028301929091600191018084116105fa57905050505050506111ab565b6000610764610633565b82106107825760405162461bcd60e51b81526004016104de90612938565b609982815481106107a357634e487b7160e01b600052603260045260246000fd5b90600052602060002001549050919050565b6000818152606760205260408120546001600160a01b03168061041d5760405162461bcd60e51b81526004016104de906126e6565b600061041d826040518060400160405280600581526020016411925494d560da1b81525060fc805480602002602001604051908101604052809291908181526020018280548015610629576000918252602091829020805460ff1684529082028301929091600191018084116105fa57905050505050506111ab565b60006001600160a01b03821661088e5760405162461bcd60e51b81526004016104de9061269c565b506001600160a01b031660009081526068602052604090205490565b6108b2611139565b6001600160a01b03166108c3610a74565b6001600160a01b0316146108e95760405162461bcd60e51b81526004016104de906127fe565b6108f3600061156a565b565b600054610100900460ff168061090e575060005460ff16155b61092a5760405162461bcd60e51b81526004016104de9061272f565b600054610100900460ff16158015610955576000805460ff1961ff0019909116610100171660011790555b61095d6115bc565b610965611634565b8015610977576000805461ff00191690555b50565b600061041d826040518060400160405280600681526020016514d150d3d39160d21b81525060fc805480602002602001604051908101604052809291908181526020018280548015610629576000918252602091829020805460ff1684529082028301929091600191018084116105fa57905050505050506111ab565b600061041d826040518060400160405280600681526020016514d15591539560d21b81525060fc805480602002602001604051908101604052809291908181526020018280548015610629576000918252602091829020805460ff1684529082028301929091600191018084116105fa57905050505050506111ab565b60ca546001600160a01b031690565b600061041d8260405180604001604052806005815260200164115251d21560da1b81525060fc805480602002602001604051908101604052809291908181526020018280548015610629576000918252602091829020805460ff1684529082028301929091600191018084116105fa57905050505050506111ab565b60606066805461043490612a52565b600061041d826040518060400160405280600681526020016508c9eaaa4a8960d31b81525060fc805480602002602001604051908101604052809291908181526020018280548015610629576000918252602091829020805460ff1684529082028301929091600191018084116105fa57905050505050506111ab565b610b93611139565b6001600160a01b0316826001600160a01b03161415610bc45760405162461bcd60e51b81526004016104de906125bc565b80606a6000610bd1611139565b6001600160a01b03908116825260208083019390935260409182016000908120918716808252919093529120805460ff191692151592909217909155610c15611139565b6001600160a01b03167f17307eab39ab6107e8899845ad3d59bd9653f200f220920489ca2b5937696c3183604051610c4d9190612440565b60405180910390a35050565b600260c9541415610c7c5760405162461bcd60e51b81526004016104de90612984565b600260c9558015801590610c9157506122b981105b610cad5760405162461bcd60e51b81526004016104de90612833565b610cb782826116a4565b5050600160c955565b610cd1610ccb611139565b836113b8565b610ced5760405162461bcd60e51b81526004016104de906128e7565b610cf9848484846116c2565b50505050565b6060610d09611f6b565b60405180610120016040528060fd8152602001612be060fd91398152610d36610d31846107ea565b6116f5565b8160016020020181905250604051806060016040528060288152602001612d46602891396040820152610d6b610d318461097a565b6060808301919091526040805191820190526028808252612b1560208301396080820152610d9b610d3184611060565b60a082015260408051606081019091526028808252612b8f602083013960c0820152610dc9610d3184610b0e565b60e082015260408051606081019091526029808252612bb76020830139610100820152610df8610d318461059b565b61012082015260408051606081019091526029808252612b666020830139610140820152610e28610d31846106de565b61016082015260408051606081019091526029808252612cdd6020830139610180820152610e58610d31846109f7565b6101a082015260408051606081019091526029808252612b3d60208301396101c0820152610e88610d3184610a83565b6101e0820152604080518082018252600d81526c1e17ba32bc3a1f1e17b9bb339f60991b602080830191909152610200840191909152825181840151838501516060860151608087015160a088015160c089015160e08a01516101008b0151995160009a610ef89a90910161222e565b60408051808303601f19018152908290526101208401516101408501516101608601516101808701516101a08801516101c08901516101e08a01516102008b0151979950610f4b988a989060200161222e565b60405160208183030381529060405290506000610f98610f6a866116f5565b610f7384611810565b604051602001610f849291906122ee565b604051602081830303815290604052611810565b905080604051602001610fab91906123aa565b60408051808303601f1901815291905295945050505050565b6001600160a01b039182166000908152606a6020908152604080832093909416825291909152205460ff1690565b610ffa611139565b6001600160a01b031661100b610a74565b6001600160a01b0316146110315760405162461bcd60e51b81526004016104de906127fe565b6001600160a01b0381166110575760405162461bcd60e51b81526004016104de906124fb565b6109778161156a565b600061041d8260405180604001604052806005815260200164151212549160da1b81525060fc805480602002602001604051908101604052809291908181526020018280548015610629576000918252602091829020805460ff1684529082028301929091600191018084116105fa57905050505050506111ab565b60006001600160e01b031982166380ac58cd60e01b148061110d57506001600160e01b03198216635b5e139f60e01b145b8061041d575061041d82611984565b6000908152606760205260409020546001600160a01b0316151590565b3390565b600081815260696020526040902080546001600160a01b0319166001600160a01b0384169081179091558190611172826107b5565b6001600160a01b03167f8c5be1e5ebec7d5bd14f71427d1e84f3dd0314c0f7b2291e5b200ac8c7c3b92560405160405180910390a45050565b6000806111e0846111bb876116f5565b6040516020016111cc9291906121ff565b60405160208183030381529060405261199d565b90506000838451836111f29190612aa8565b8151811061121057634e487b7160e01b600052603260045260246000fd5b602002602001015160ff169050600060158361122c9190612aa8565b9050600e81111561128e5760fe80546112459085612aa8565b8154811061126357634e487b7160e01b600052603260045260246000fd5b60009182526020918290209181049091015461128b91601f166101000a900460ff16836129c4565b91505b601381106113ae5780601314156113575760fe80546112ad9085612aa8565b815481106112cb57634e487b7160e01b600052603260045260246000fd5b90600052602060002090602091828204019190069054906101000a900460ff1660ff1660fd8080549050856113009190612aa8565b8154811061131e57634e487b7160e01b600052603260045260246000fd5b60009182526020918290209181049091015461134691601f166101000a900460ff16846129f0565b61135091906129c4565b91506113ae565b60fd80546113659085612aa8565b8154811061138357634e487b7160e01b600052603260045260246000fd5b6000918252602091829020918104909101546113ab91601f166101000a900460ff16836129f0565b91505b5095945050505050565b60006113c38261111c565b6113df5760405162461bcd60e51b81526004016104de906125f3565b60006113ea836107b5565b9050806001600160a01b0316846001600160a01b031614806114255750836001600160a01b031661141a846104b7565b6001600160a01b0316145b8061143557506114358185610fc4565b949350505050565b826001600160a01b0316611450826107b5565b6001600160a01b0316146114765760405162461bcd60e51b81526004016104de9061285d565b6001600160a01b03821661149c5760405162461bcd60e51b81526004016104de90612578565b6114a78383836119ce565b6114b260008261113d565b6001600160a01b03831660009081526068602052604081208054600192906114db908490612a0f565b90915550506001600160a01b03821660009081526068602052604081208054600192906115099084906129c4565b909155505060008181526067602052604080822080546001600160a01b0319166001600160a01b0386811691821790925591518493918716917fddf252ad1be2c89b69c2b068fc378daa952ba7f163c4a11628f55a4df523b3ef91a4505050565b60ca80546001600160a01b038381166001600160a01b0319831681179093556040519116919082907f8be0079c531659141344cd1fd0a4f28419497f9722a3daafe3b4186f6b6457e090600090a35050565b600054610100900460ff16806115d5575060005460ff16155b6115f15760405162461bcd60e51b81526004016104de9061272f565b600054610100900460ff1615801561161c576000805460ff1961ff0019909116610100171660011790555b611624611a57565b61162c611a57565b610965611a57565b600054610100900460ff168061164d575060005460ff16155b6116695760405162461bcd60e51b81526004016104de9061272f565b600054610100900460ff16158015611694576000805460ff1961ff0019909116610100171660011790555b61169c611a57565b610965611aca565b6116be828260405180602001604052806000815250611b3a565b5050565b6116cd84848461143d565b6116d984848484611b6d565b610cf95760405162461bcd60e51b81526004016104de906124a9565b60608161171a57506040805180820190915260018152600360fc1b6020820152610420565b8160005b8115611744578061172e81612a8d565b915061173d9050600a836129dc565b915061171e565b60008167ffffffffffffffff81111561176d57634e487b7160e01b600052604160045260246000fd5b6040519080825280601f01601f191660200182016040528015611797576020820181803683370190505b5090505b8415611435576117ac600183612a0f565b91506117b9600a86612aa8565b6117c49060306129c4565b60f81b8183815181106117e757634e487b7160e01b600052603260045260246000fd5b60200101906001600160f81b031916908160001a905350611809600a866129dc565b945061179b565b805160609080611830575050604080516020810190915260008152610420565b6000600361183f8360026129c4565b61184991906129dc565b6118549060046129f0565b905060006118638260206129c4565b67ffffffffffffffff81111561188957634e487b7160e01b600052604160045260246000fd5b6040519080825280601f01601f1916602001820160405280156118b3576020820181803683370190505b5090506000604051806060016040528060408152602001612d06604091399050600181016020830160005b8681101561193f576003818a01810151603f601282901c8116860151600c83901c8216870151600684901c831688015192909316870151600891821b60ff94851601821b92841692909201901b91160160e01b8352600490920191016118de565b506003860660018114611959576002811461196a57611976565b613d3d60f01b600119830152611976565b603d60f81b6000198301525b505050918152949350505050565b6001600160e01b031981166301ffc9a760e01b14919050565b6000816040516020016119b091906121e3565b60408051601f19818403018152919052805160209091012092915050565b6119d9838383610596565b6001600160a01b0383166119f5576119f081611c88565b611a18565b816001600160a01b0316836001600160a01b031614611a1857611a188382611ccc565b6001600160a01b038216611a3457611a2f81611d69565b610596565b826001600160a01b0316826001600160a01b031614610596576105968282611e42565b600054610100900460ff1680611a70575060005460ff16155b611a8c5760405162461bcd60e51b81526004016104de9061272f565b600054610100900460ff16158015610965576000805460ff1961ff0019909116610100171660011790558015610977576000805461ff001916905550565b600054610100900460ff1680611ae3575060005460ff16155b611aff5760405162461bcd60e51b81526004016104de9061272f565b600054610100900460ff16158015611b2a576000805460ff1961ff0019909116610100171660011790555b610965611b35611139565b61156a565b611b448383611e86565b611b516000848484611b6d565b6105965760405162461bcd60e51b81526004016104de906124a9565b6000611b81846001600160a01b0316611f65565b15611c7d57836001600160a01b031663150b7a02611b9d611139565b8786866040518563ffffffff1660e01b8152600401611bbf9493929190612403565b602060405180830381600087803b158015611bd957600080fd5b505af1925050508015611c09575060408051601f3d908101601f19168201909252611c0691810190612183565b60015b611c63573d808015611c37576040519150601f19603f3d011682016040523d82523d6000602084013e611c3c565b606091505b508051611c5b5760405162461bcd60e51b81526004016104de906124a9565b805181602001fd5b6001600160e01b031916630a85bd0160e11b149050611435565b506001949350505050565b609980546000838152609a60205260408120829055600182018355919091527f72a152ddfb8e864297c917af52ea6c1c68aead0fee1a62673fcc7e0c94979d000155565b60006001611cd984610866565b611ce39190612a0f565b600083815260986020526040902054909150808214611d36576001600160a01b03841660009081526097602090815260408083208584528252808320548484528184208190558352609890915290208190555b5060009182526098602090815260408084208490556001600160a01b039094168352609781528383209183525290812055565b609954600090611d7b90600190612a0f565b6000838152609a602052604081205460998054939450909284908110611db157634e487b7160e01b600052603260045260246000fd5b906000526020600020015490508060998381548110611de057634e487b7160e01b600052603260045260246000fd5b6000918252602080832090910192909255828152609a90915260408082208490558582528120556099805480611e2657634e487b7160e01b600052603160045260246000fd5b6001900381819060005260206000200160009055905550505050565b6000611e4d83610866565b6001600160a01b039093166000908152609760209081526040808320868452825280832085905593825260989052919091209190915550565b6001600160a01b038216611eac5760405162461bcd60e51b81526004016104de9061277d565b611eb58161111c565b15611ed25760405162461bcd60e51b81526004016104de90612541565b611ede600083836119ce565b6001600160a01b0382166000908152606860205260408120805460019290611f079084906129c4565b909155505060008181526067602052604080822080546001600160a01b0319166001600160a01b03861690811790915590518392907fddf252ad1be2c89b69c2b068fc378daa952ba7f163c4a11628f55a4df523b3ef908290a45050565b3b151590565b6040518061022001604052806011905b6060815260200190600190039081611f7b5790505090565b80356001600160a01b038116811461042057600080fd5b600060208284031215611fbb578081fd5b611fc482611f93565b9392505050565b60008060408385031215611fdd578081fd5b611fe683611f93565b9150611ff460208401611f93565b90509250929050565b600080600060608486031215612011578081fd5b61201a84611f93565b925061202860208501611f93565b9150604084013590509250925092565b6000806000806080858703121561204d578081fd5b61205685611f93565b93506020612065818701611f93565b935060408601359250606086013567ffffffffffffffff80821115612088578384fd5b818801915088601f83011261209b578384fd5b8135818111156120ad576120ad612ae8565b604051601f8201601f19168101850183811182821017156120d0576120d0612ae8565b60405281815283820185018b10156120e6578586fd5b81858501868301379081019093019390935250939692955090935050565b60008060408385031215612116578182fd5b61211f83611f93565b915060208301358015158114612133578182fd5b809150509250929050565b60008060408385031215612150578182fd5b61215983611f93565b946020939093013593505050565b600060208284031215612178578081fd5b8135611fc481612afe565b600060208284031215612194578081fd5b8151611fc481612afe565b6000602082840312156121b0578081fd5b5035919050565b600081518084526121cf816020860160208601612a26565b601f01601f19169290920160200192915050565b600082516121f5818460208701612a26565b9190910192915050565b60008351612211818460208801612a26565b835190830190612225818360208801612a26565b01949350505050565b60008a51612240818460208f01612a26565b8a516122528183860160208f01612a26565b8a519184010190612267818360208e01612a26565b89516122798183850160208e01612a26565b895192909101019061228f818360208c01612a26565b87516122a18183850160208c01612a26565b87519290910101906122b7818360208a01612a26565b85519101906122ca818360208901612a26565b84516122dc8183850160208901612a26565b9101019b9a5050505050505050505050565b6c7b226e616d65223a20224e202360981b8152825160009061231781600d850160208801612a26565b7f222c20226465736372697074696f6e223a20224e206973206a757374206e756d600d918401918201527f626572732e222c2022696d616765223a2022646174613a696d6167652f737667602d8201526b0ade1b5b0ed8985cd94d8d0b60a21b604d820152835161238f816059840160208801612a26565b61227d60f01b60599290910191820152605b01949350505050565b60007f646174613a6170706c69636174696f6e2f6a736f6e3b6261736536342c000000825282516123e281601d850160208701612a26565b91909101601d0192915050565b6001600160a01b0391909116815260200190565b6001600160a01b0385811682528416602082015260408101839052608060608201819052600090612436908301846121b7565b9695505050505050565b901515815260200190565b600060208252611fc460208301846121b7565b6020808252602b908201527f455243373231456e756d657261626c653a206f776e657220696e646578206f7560408201526a74206f6620626f756e647360a81b606082015260800190565b60208082526032908201527f4552433732313a207472616e7366657220746f206e6f6e20455243373231526560408201527131b2b4bb32b91034b6b83632b6b2b73a32b960711b606082015260800190565b60208082526026908201527f4f776e61626c653a206e6577206f776e657220697320746865207a65726f206160408201526564647265737360d01b606082015260800190565b6020808252601c908201527f4552433732313a20746f6b656e20616c7265616479206d696e74656400000000604082015260600190565b60208082526024908201527f4552433732313a207472616e7366657220746f20746865207a65726f206164646040820152637265737360e01b606082015260800190565b60208082526019908201527f4552433732313a20617070726f766520746f2063616c6c657200000000000000604082015260600190565b6020808252602c908201527f4552433732313a206f70657261746f7220717565727920666f72206e6f6e657860408201526b34b9ba32b73a103a37b5b2b760a11b606082015260800190565b60208082526038908201527f4552433732313a20617070726f76652063616c6c6572206973206e6f74206f7760408201527f6e6572206e6f7220617070726f76656420666f7220616c6c0000000000000000606082015260800190565b6020808252602a908201527f4552433732313a2062616c616e636520717565727920666f7220746865207a65604082015269726f206164647265737360b01b606082015260800190565b60208082526029908201527f4552433732313a206f776e657220717565727920666f72206e6f6e657869737460408201526832b73a103a37b5b2b760b91b606082015260800190565b6020808252602e908201527f496e697469616c697a61626c653a20636f6e747261637420697320616c72656160408201526d191e481a5b9a5d1a585b1a5e995960921b606082015260800190565b6020808252818101527f4552433732313a206d696e7420746f20746865207a65726f2061646472657373604082015260600190565b6020808252602c908201527f4552433732313a20617070726f76656420717565727920666f72206e6f6e657860408201526b34b9ba32b73a103a37b5b2b760a11b606082015260800190565b6020808252818101527f4f776e61626c653a2063616c6c6572206973206e6f7420746865206f776e6572604082015260600190565b60208082526010908201526f151bdad95b881251081a5b9d985b1a5960821b604082015260600190565b60208082526029908201527f4552433732313a207472616e73666572206f6620746f6b656e2074686174206960408201526839903737ba1037bbb760b91b606082015260800190565b60208082526021908201527f4552433732313a20617070726f76616c20746f2063757272656e74206f776e656040820152603960f91b606082015260800190565b60208082526031908201527f4552433732313a207472616e736665722063616c6c6572206973206e6f74206f6040820152701ddb995c881b9bdc88185c1c1c9bdd9959607a1b606082015260800190565b6020808252602c908201527f455243373231456e756d657261626c653a20676c6f62616c20696e646578206f60408201526b7574206f6620626f756e647360a01b606082015260800190565b6020808252601f908201527f5265656e7472616e637947756172643a207265656e7472616e742063616c6c00604082015260600190565b90815260200190565b600082198211156129d7576129d7612abc565b500190565b6000826129eb576129eb612ad2565b500490565b6000816000190483118215151615612a0a57612a0a612abc565b500290565b600082821015612a2157612a21612abc565b500390565b60005b83811015612a41578181015183820152602001612a29565b83811115610cf95750506000910152565b600281046001821680612a6657607f821691505b60208210811415612a8757634e487b7160e01b600052602260045260246000fd5b50919050565b6000600019821415612aa157612aa1612abc565b5060010190565b600082612ab757612ab7612ad2565b500690565b634e487b7160e01b600052601160045260246000fd5b634e487b7160e01b600052601260045260246000fd5b634e487b7160e01b600052604160045260246000fd5b6001600160e01b03198116811461097757600080fdfe3c2f746578743e3c7465787420783d2231302220793d2236302220636c6173733d2262617365223e3c2f746578743e3c7465787420783d2231302220793d223136302220636c6173733d2262617365223e3c2f746578743e3c7465787420783d2231302220793d223132302220636c6173733d2262617365223e3c2f746578743e3c7465787420783d2231302220793d2238302220636c6173733d2262617365223e3c2f746578743e3c7465787420783d2231302220793d223130302220636c6173733d2262617365223e3c73766720786d6c6e733d22687474703a2f2f7777772e77332e6f72672f323030302f73766722207072657365727665417370656374526174696f3d22784d696e594d696e206d656574222076696577426f783d223020302033353020333530223e3c7374796c653e2e62617365207b2066696c6c3a2077686974653b20666f6e742d66616d696c793a2073657269663b20666f6e742d73697a653a20313470783b207d3c2f7374796c653e3c726563742077696474683d223130302522206865696768743d2231303025222066696c6c3d22626c61636b22202f3e3c7465787420783d2231302220793d2232302220636c6173733d2262617365223e3c2f746578743e3c7465787420783d2231302220793d223134302220636c6173733d2262617365223e4142434445464748494a4b4c4d4e4f505152535455565758595a6162636465666768696a6b6c6d6e6f707172737475767778797a303132333435363738392b2f3c2f746578743e3c7465787420783d2231302220793d2234302220636c6173733d2262617365223ea2646970667358221220c1a767d746a89d4a5b5605d65e8cff7bc99b2fa3e796c3c8214aae88db2db3c864736f6c63430008000033",
  "devdoc": {
    "kind": "dev",
    "methods": {
      "approve(address,uint256)": {
        "details": "See {IERC721-approve}."
      },
      "balanceOf(address)": {
        "details": "See {IERC721-balanceOf}."
      },
      "getApproved(uint256)": {
        "details": "See {IERC721-getApproved}."
      },
      "isApprovedForAll(address,address)": {
        "details": "See {IERC721-isApprovedForAll}."
      },
      "name()": {
        "details": "See {IERC721Metadata-name}."
      },
      "owner()": {
        "details": "Returns the address of the current owner."
      },
      "ownerOf(uint256)": {
        "details": "See {IERC721-ownerOf}."
      },
      "renounceOwnership()": {
        "details": "Leaves the contract without owner. It will not be possible to call `onlyOwner` functions anymore. Can only be called by the current owner. NOTE: Renouncing ownership will leave the contract without an owner, thereby removing any functionality that is only available to the owner."
      },
      "safeTransferFrom(address,address,uint256)": {
        "details": "See {IERC721-safeTransferFrom}."
      },
      "safeTransferFrom(address,address,uint256,bytes)": {
        "details": "See {IERC721-safeTransferFrom}."
      },
      "setApprovalForAll(address,bool)": {
        "details": "See {IERC721-setApprovalForAll}."
      },
      "supportsInterface(bytes4)": {
        "details": "See {IERC165-supportsInterface}."
      },
      "symbol()": {
        "details": "See {IERC721Metadata-symbol}."
      },
      "tokenByIndex(uint256)": {
        "details": "See {IERC721Enumerable-tokenByIndex}."
      },
      "tokenOfOwnerByIndex(address,uint256)": {
        "details": "See {IERC721Enumerable-tokenOfOwnerByIndex}."
      },
      "tokenURI(uint256)": {
        "details": "See {IERC721Metadata-tokenURI}."
      },
      "totalSupply()": {
        "details": "See {IERC721Enumerable-totalSupply}."
      },
      "transferFrom(address,address,uint256)": {
        "details": "See {IERC721-transferFrom}."
      },
      "transferOwnership(address)": {
        "details": "Transfers ownership of the contract to a new account (`newOwner`). Can only be called by the current owner."
      }
    },
    "version": 1
  },
  "userdoc": {
    "kind": "user",
    "methods": {},
    "version": 1
  },
  "storageLayout": {
    "storage": [
      {
        "astId": 130,
        "contract": "contracts/N.sol:N",
        "label": "_initialized",
        "offset": 0,
        "slot": "0",
        "type": "t_bool"
      },
      {
        "astId": 133,
        "contract": "contracts/N.sol:N",
        "label": "_initializing",
        "offset": 1,
        "slot": "0",
        "type": "t_bool"
      },
      {
        "astId": 1862,
        "contract": "contracts/N.sol:N",
        "label": "__gap",
        "offset": 0,
        "slot": "1",
        "type": "t_array(t_uint256)50_storage"
      },
      {
        "astId": 2111,
        "contract": "contracts/N.sol:N",
        "label": "__gap",
        "offset": 0,
        "slot": "51",
        "type": "t_array(t_uint256)50_storage"
      },
      {
        "astId": 199,
        "contract": "contracts/N.sol:N",
        "label": "_name",
        "offset": 0,
        "slot": "101",
        "type": "t_string_storage"
      },
      {
        "astId": 201,
        "contract": "contracts/N.sol:N",
        "label": "_symbol",
        "offset": 0,
        "slot": "102",
        "type": "t_string_storage"
      },
      {
        "astId": 205,
        "contract": "contracts/N.sol:N",
        "label": "_owners",
        "offset": 0,
        "slot": "103",
        "type": "t_mapping(t_uint256,t_address)"
      },
      {
        "astId": 209,
        "contract": "contracts/N.sol:N",
        "label": "_balances",
        "offset": 0,
        "slot": "104",
        "type": "t_mapping(t_address,t_uint256)"
      },
      {
        "astId": 213,
        "contract": "contracts/N.sol:N",
        "label": "_tokenApprovals",
        "offset": 0,
        "slot": "105",
        "type": "t_mapping(t_uint256,t_address)"
      },
      {
        "astId": 219,
        "contract": "contracts/N.sol:N",
        "label": "_operatorApprovals",
        "offset": 0,
        "slot": "106",
        "type": "t_mapping(t_address,t_mapping(t_address,t_bool))"
      },
      {
        "astId": 1015,
        "contract": "contracts/N.sol:N",
        "label": "__gap",
        "offset": 0,
        "slot": "107",
        "type": "t_array(t_uint256)44_storage"
      },
      {
        "astId": 1189,
        "contract": "contracts/N.sol:N",
        "label": "_ownedTokens",
        "offset": 0,
        "slot": "151",
        "type": "t_mapping(t_address,t_mapping(t_uint256,t_uint256))"
      },
      {
        "astId": 1193,
        "contract": "contracts/N.sol:N",
        "label": "_ownedTokensIndex",
        "offset": 0,
        "slot": "152",
        "type": "t_mapping(t_uint256,t_uint256)"
      },
      {
        "astId": 1196,
        "contract": "contracts/N.sol:N",
        "label": "_allTokens",
        "offset": 0,
        "slot": "153",
        "type": "t_array(t_uint256)dyn_storage"
      },
      {
        "astId": 1200,
        "contract": "contracts/N.sol:N",
        "label": "_allTokensIndex",
        "offset": 0,
        "slot": "154",
        "type": "t_mapping(t_uint256,t_uint256)"
      },
      {
        "astId": 1515,
        "contract": "contracts/N.sol:N",
        "label": "__gap",
        "offset": 0,
        "slot": "155",
        "type": "t_array(t_uint256)46_storage"
      },
      {
        "astId": 2239,
        "contract": "contracts/N.sol:N",
        "label": "_status",
        "offset": 0,
        "slot": "201",
        "type": "t_uint256"
      },
      {
        "astId": 10,
        "contract": "contracts/N.sol:N",
        "label": "_owner",
        "offset": 0,
        "slot": "202",
        "type": "t_address"
      },
      {
        "astId": 123,
        "contract": "contracts/N.sol:N",
        "label": "__gap",
        "offset": 0,
        "slot": "203",
        "type": "t_array(t_uint256)49_storage"
      },
      {
        "astId": 4227,
        "contract": "contracts/N.sol:N",
        "label": "units",
        "offset": 0,
        "slot": "252",
        "type": "t_array(t_uint8)dyn_storage"
      },
      {
        "astId": 4319,
        "contract": "contracts/N.sol:N",
        "label": "multipliers",
        "offset": 0,
        "slot": "253",
        "type": "t_array(t_uint8)dyn_storage"
      },
      {
        "astId": 4325,
        "contract": "contracts/N.sol:N",
        "label": "suffixes",
        "offset": 0,
        "slot": "254",
        "type": "t_array(t_uint8)dyn_storage"
      }
    ],
    "types": {
      "t_address": {
        "encoding": "inplace",
        "label": "address",
        "numberOfBytes": "20"
      },
      "t_array(t_uint256)44_storage": {
        "base": "t_uint256",
        "encoding": "inplace",
        "label": "uint256[44]",
        "numberOfBytes": "1408"
      },
      "t_array(t_uint256)46_storage": {
        "base": "t_uint256",
        "encoding": "inplace",
        "label": "uint256[46]",
        "numberOfBytes": "1472"
      },
      "t_array(t_uint256)49_storage": {
        "base": "t_uint256",
        "encoding": "inplace",
        "label": "uint256[49]",
        "numberOfBytes": "1568"
      },
      "t_array(t_uint256)50_storage": {
        "base": "t_uint256",
        "encoding": "inplace",
        "label": "uint256[50]",
        "numberOfBytes": "1600"
      },
      "t_array(t_uint256)dyn_storage": {
        "base": "t_uint256",
        "encoding": "dynamic_array",
        "label": "uint256[]",
        "numberOfBytes": "32"
      },
      "t_array(t_uint8)dyn_storage": {
        "base": "t_uint8",
        "encoding": "dynamic_array",
        "label": "uint8[]",
        "numberOfBytes": "32"
      },
      "t_bool": {
        "encoding": "inplace",
        "label": "bool",
        "numberOfBytes": "1"
      },
      "t_mapping(t_address,t_bool)": {
        "encoding": "mapping",
        "key": "t_address",
        "label": "mapping(address => bool)",
        "numberOfBytes": "32",
        "value": "t_bool"
      },
      "t_mapping(t_address,t_mapping(t_address,t_bool))": {
        "encoding": "mapping",
        "key": "t_address",
        "label": "mapping(address => mapping(address => bool))",
        "numberOfBytes": "32",
        "value": "t_mapping(t_address,t_bool)"
      },
      "t_mapping(t_address,t_mapping(t_uint256,t_uint256))": {
        "encoding": "mapping",
        "key": "t_address",
        "label": "mapping(address => mapping(uint256 => uint256))",
        "numberOfBytes": "32",
        "value": "t_mapping(t_uint256,t_uint256)"
      },
      "t_mapping(t_address,t_uint256)": {
        "encoding": "mapping",
        "key": "t_address",
        "label": "mapping(address => uint256)",
        "numberOfBytes": "32",
        "value": "t_uint256"
      },
      "t_mapping(t_uint256,t_address)": {
        "encoding": "mapping",
        "key": "t_uint256",
        "label": "mapping(uint256 => address)",
        "numberOfBytes": "32",
        "value": "t_address"
      },
      "t_mapping(t_uint256,t_uint256)": {
        "encoding": "mapping",
        "key": "t_uint256",
        "label": "mapping(uint256 => uint256)",
        "numberOfBytes": "32",
        "value": "t_uint256"
      },
      "t_string_storage": {
        "encoding": "bytes",
        "label": "string",
        "numberOfBytes": "32"
      },
      "t_uint256": {
        "encoding": "inplace",
        "label": "uint256",
        "numberOfBytes": "32"
      },
      "t_uint8": {
        "encoding": "inplace",
        "label": "uint8",
        "numberOfBytes": "1"
      }
    }
  }
}